:020000040000FA
:020000000528D1
:040002000034003492
:080008006228850186018701D1
:100010008801890183160030850001308600803018
:100020008700003088008100890003172030880095
:1000300000308900831203138316031380309F005E
:100040008312031355309F00203084000130AB0031
:10005000A801A901AA010130B0008B20AD01AE01B9
:10006000AF0183160230810020308C0019309900D6
:1000700024309800D0308B003130920083129030C1
:1000800098002F3092009F1091209920A120A92044
:10009000B00B4E289F149F184B28B6202B088500C4
:1000A0002B182808AB1829082B192A08AB190A3075
:1000B0006E208800B1200310AB0D2B1E4E2801309E
:1000C000AB0044287030030EF1008C1ADE208B1830
:1000D0007A20710E8300F00E700E090082073F3403
:1000E00006345B344F3466346D347D3407347F34EA
:1000F0006F3439347208B5000C212008B5000C218A
:100100002108B5000C212208B5000C212308B500F8
:100110000C218B1008004530A000A100A200A30014
:1001200008000B118716200881000B1D95288712E7
:1001300008000B110716210881000B1D9D280712CE
:1001400008000B118715220881000B1DA5288711B7
:1001500008000B118714230881000B1DAD288710A0
:10016000080091018C108C1CB32808003230B000BC
:100170001E08F300831603131E08F20083120313F4
:10018000031073180314F20CCD202F08AA002E08B8
:10019000A9002D08A8000C1308007208AD00AE01DC
:1001A000AF010A302D02031C0800AD00AE0A0A3070
:1001B0002E02031DD128AE01AF0AD1281A08A400CF
:1001C0001030240284008C1EE3281A08AF0030305F
:1001D000AF028C1EE9281A08AE003030AE028C1E29
:1001E000EF281A08AD003030AD028001F820080079
:1001F000AF080319FF28AF0364308007F828AE0862
:1002000003190629AE030A308007FF28AD08031939
:100210000800AD03800A0629350899008316981C4A
:060220000F298312080003
:02400E00E428A4
:02401000FF3E71
:00000001FF
